{
  "_format": "hh-sol-artifact-1",
  "contractName": "NonFungibleTarot",
  "sourceName": "contracts/NonFungibleTarot.sol",
  "abi": [
    {
      "inputs": [],
      "stateMutability": "nonpayable",
      "type": "constructor"
    },
    {
      "anonymous": false,
      "inputs": [
        {
          "indexed": true,
          "internalType": "address",
          "name": "owner",
          "type": "address"
        },
        {
          "indexed": true,
          "internalType": "address",
          "name": "approved",
          "type": "address"
        },
        {
          "indexed": true,
          "internalType": "uint256",
          "name": "tokenId",
          "type": "uint256"
        }
      ],
      "name": "Approval",
      "type": "event"
    },
    {
      "anonymous": false,
      "inputs": [
        {
          "indexed": true,
          "internalType": "address",
          "name": "owner",
          "type": "address"
        },
        {
          "indexed": true,
          "internalType": "address",
          "name": "operator",
          "type": "address"
        },
        {
          "indexed": false,
          "internalType": "bool",
          "name": "approved",
          "type": "bool"
        }
      ],
      "name": "ApprovalForAll",
      "type": "event"
    },
    {
      "anonymous": false,
      "inputs": [
        {
          "indexed": false,
          "internalType": "address",
          "name": "sender",
          "type": "address"
        },
        {
          "indexed": false,
          "internalType": "uint256",
          "name": "tokenId",
          "type": "uint256"
        }
      ],
      "name": "NewEpicNFTMinted",
      "type": "event"
    },
    {
      "anonymous": false,
      "inputs": [
        {
          "indexed": true,
          "internalType": "address",
          "name": "from",
          "type": "address"
        },
        {
          "indexed": true,
          "internalType": "address",
          "name": "to",
          "type": "address"
        },
        {
          "indexed": true,
          "internalType": "uint256",
          "name": "tokenId",
          "type": "uint256"
        }
      ],
      "name": "Transfer",
      "type": "event"
    },
    {
      "inputs": [
        {
          "internalType": "address",
          "name": "to",
          "type": "address"
        },
        {
          "internalType": "uint256",
          "name": "tokenId",
          "type": "uint256"
        }
      ],
      "name": "approve",
      "outputs": [],
      "stateMutability": "nonpayable",
      "type": "function"
    },
    {
      "inputs": [
        {
          "internalType": "address",
          "name": "owner",
          "type": "address"
        }
      ],
      "name": "balanceOf",
      "outputs": [
        {
          "internalType": "uint256",
          "name": "",
          "type": "uint256"
        }
      ],
      "stateMutability": "view",
      "type": "function"
    },
    {
      "inputs": [
        {
          "internalType": "uint256",
          "name": "tokenId",
          "type": "uint256"
        }
      ],
      "name": "chooseSpread",
      "outputs": [
        {
          "internalType": "uint256",
          "name": "",
          "type": "uint256"
        }
      ],
      "stateMutability": "view",
      "type": "function"
    },
    {
      "inputs": [
        {
          "internalType": "uint256",
          "name": "tokenId",
          "type": "uint256"
        },
        {
          "internalType": "uint256",
          "name": "which",
          "type": "uint256"
        }
      ],
      "name": "drawCard",
      "outputs": [
        {
          "internalType": "string",
          "name": "",
          "type": "string"
        }
      ],
      "stateMutability": "view",
      "type": "function"
    },
    {
      "inputs": [
        {
          "internalType": "uint256",
          "name": "tokenId",
          "type": "uint256"
        }
      ],
      "name": "getApproved",
      "outputs": [
        {
          "internalType": "address",
          "name": "",
          "type": "address"
        }
      ],
      "stateMutability": "view",
      "type": "function"
    },
    {
      "inputs": [
        {
          "internalType": "address",
          "name": "owner",
          "type": "address"
        },
        {
          "internalType": "address",
          "name": "operator",
          "type": "address"
        }
      ],
      "name": "isApprovedForAll",
      "outputs": [
        {
          "internalType": "bool",
          "name": "",
          "type": "bool"
        }
      ],
      "stateMutability": "view",
      "type": "function"
    },
    {
      "inputs": [],
      "name": "name",
      "outputs": [
        {
          "internalType": "string",
          "name": "",
          "type": "string"
        }
      ],
      "stateMutability": "view",
      "type": "function"
    },
    {
      "inputs": [
        {
          "internalType": "uint256",
          "name": "tokenId",
          "type": "uint256"
        }
      ],
      "name": "ownerOf",
      "outputs": [
        {
          "internalType": "address",
          "name": "",
          "type": "address"
        }
      ],
      "stateMutability": "view",
      "type": "function"
    },
    {
      "inputs": [
        {
          "internalType": "address",
          "name": "from",
          "type": "address"
        },
        {
          "internalType": "address",
          "name": "to",
          "type": "address"
        },
        {
          "internalType": "uint256",
          "name": "tokenId",
          "type": "uint256"
        }
      ],
      "name": "safeTransferFrom",
      "outputs": [],
      "stateMutability": "nonpayable",
      "type": "function"
    },
    {
      "inputs": [
        {
          "internalType": "address",
          "name": "from",
          "type": "address"
        },
        {
          "internalType": "address",
          "name": "to",
          "type": "address"
        },
        {
          "internalType": "uint256",
          "name": "tokenId",
          "type": "uint256"
        },
        {
          "internalType": "bytes",
          "name": "_data",
          "type": "bytes"
        }
      ],
      "name": "safeTransferFrom",
      "outputs": [],
      "stateMutability": "nonpayable",
      "type": "function"
    },
    {
      "inputs": [
        {
          "internalType": "address",
          "name": "operator",
          "type": "address"
        },
        {
          "internalType": "bool",
          "name": "approved",
          "type": "bool"
        }
      ],
      "name": "setApprovalForAll",
      "outputs": [],
      "stateMutability": "nonpayable",
      "type": "function"
    },
    {
      "inputs": [
        {
          "internalType": "bytes4",
          "name": "interfaceId",
          "type": "bytes4"
        }
      ],
      "name": "supportsInterface",
      "outputs": [
        {
          "internalType": "bool",
          "name": "",
          "type": "bool"
        }
      ],
      "stateMutability": "view",
      "type": "function"
    },
    {
      "inputs": [],
      "name": "symbol",
      "outputs": [
        {
          "internalType": "string",
          "name": "",
          "type": "string"
        }
      ],
      "stateMutability": "view",
      "type": "function"
    },
    {
      "inputs": [],
      "name": "tarotSpread",
      "outputs": [],
      "stateMutability": "nonpayable",
      "type": "function"
    },
    {
      "inputs": [
        {
          "internalType": "uint256",
          "name": "tokenId",
          "type": "uint256"
        }
      ],
      "name": "tokenURI",
      "outputs": [
        {
          "internalType": "string",
          "name": "",
          "type": "string"
        }
      ],
      "stateMutability": "view",
      "type": "function"
    },
    {
      "inputs": [
        {
          "internalType": "address",
          "name": "from",
          "type": "address"
        },
        {
          "internalType": "address",
          "name": "to",
          "type": "address"
        },
        {
          "internalType": "uint256",
          "name": "tokenId",
          "type": "uint256"
        }
      ],
      "name": "transferFrom",
      "outputs": [],
      "stateMutability": "nonpayable",
      "type": "function"
    }
  ],
  "bytecode": "0x608060405260c860085560405180610160016040528061012d815260200162004ae761012d9139600990805190602001906200003d92919062000c47565b50604051806102c001604052806040518060400160405280600881526020017f54686520466f6f6c00000000000000000000000000000000000000000000000081525081526020016040518060400160405280600c81526020017f546865204d6167696369616e000000000000000000000000000000000000000081525081526020016040518060400160405280601281526020017f546865204869676820507269657374657373000000000000000000000000000081525081526020016040518060400160405280600b81526020017f54686520456d707265737300000000000000000000000000000000000000000081525081526020016040518060400160405280600b81526020017f54686520456d7065726f7200000000000000000000000000000000000000000081525081526020016040518060400160405280600e81526020017f54686520486965726f7068616e7400000000000000000000000000000000000081525081526020016040518060400160405280600a81526020017f546865204c6f766572730000000000000000000000000000000000000000000081525081526020016040518060400160405280600b81526020017f5468652043686172696f7400000000000000000000000000000000000000000081525081526020016040518060400160405280600781526020017f4a7573746963650000000000000000000000000000000000000000000000000081525081526020016040518060400160405280600a81526020017f546865204865726d69740000000000000000000000000000000000000000000081525081526020016040518060400160405280601081526020017f576865656c206f6620466f7274756e650000000000000000000000000000000081525081526020016040518060400160405280600881526020017f537472656e67746800000000000000000000000000000000000000000000000081525081526020016040518060400160405280600e81526020017f5468652048616e676564204d616e00000000000000000000000000000000000081525081526020016040518060400160405280600581526020017f446561746800000000000000000000000000000000000000000000000000000081525081526020016040518060400160405280600a81526020017f54656d706572616e63650000000000000000000000000000000000000000000081525081526020016040518060400160405280600981526020017f54686520446576696c000000000000000000000000000000000000000000000081525081526020016040518060400160405280600981526020017f54686520546f776572000000000000000000000000000000000000000000000081525081526020016040518060400160405280600881526020017f546865205374617200000000000000000000000000000000000000000000000081525081526020016040518060400160405280600881526020017f546865204d6f6f6e00000000000000000000000000000000000000000000000081525081526020016040518060400160405280600781526020017f5468652053756e0000000000000000000000000000000000000000000000000081525081526020016040518060400160405280600981526020017f4a756467656d656e74000000000000000000000000000000000000000000000081525081526020016040518060400160405280600981526020017f54686520576f726c640000000000000000000000000000000000000000000000815250815250600a9060166200056c92919062000cd8565b506040518060e001604052806040518060400160405280600581526020017f506173743a00000000000000000000000000000000000000000000000000000081525081526020016040518060400160405280600581526020017f496465613a00000000000000000000000000000000000000000000000000000081525081526020016040518060400160405280600a81526020017f536974756174696f6e3a0000000000000000000000000000000000000000000081525081526020016040518060400160405280600a81526020017f536974756174696f6e3a0000000000000000000000000000000000000000000081525081526020016040518060400160405280600481526020017f596f753a0000000000000000000000000000000000000000000000000000000081525081526020016040518060400160405280600981526020017f537472656e6774683a000000000000000000000000000000000000000000000081525081526020016040518060400160405280600481526020017f596f753a00000000000000000000000000000000000000000000000000000000815250815250600b9060076200072592919062000d3f565b506040518060e001604052806040518060400160405280600881526020017f50726573656e743a00000000000000000000000000000000000000000000000081525081526020016040518060400160405280600881526020017f50726f636573733a00000000000000000000000000000000000000000000000081525081526020016040518060400160405280600981526020017f4f62737461636c653a000000000000000000000000000000000000000000000081525081526020016040518060400160405280600781526020017f416374696f6e3a0000000000000000000000000000000000000000000000000081525081526020016040518060400160405280600a81526020017f546865204f746865723a0000000000000000000000000000000000000000000081525081526020016040518060400160405280600981526020017f5765616b6e6573733a000000000000000000000000000000000000000000000081525081526020016040518060400160405280600581526020017f506174683a000000000000000000000000000000000000000000000000000000815250815250600c906007620008de92919062000d3f565b506040518060e001604052806040518060400160405280600781526020017f4675747572653a0000000000000000000000000000000000000000000000000081525081526020016040518060400160405280600881526020017f4f7574636f6d653a00000000000000000000000000000000000000000000000081525081526020016040518060400160405280600781526020017f4164766963653a0000000000000000000000000000000000000000000000000081525081526020016040518060400160405280600881526020017f4f7574636f6d653a00000000000000000000000000000000000000000000000081525081526020016040518060400160405280600d81526020017f52656c6174696f6e736869703a0000000000000000000000000000000000000081525081526020016040518060400160405280600781526020017f4164766963653a0000000000000000000000000000000000000000000000000081525081526020016040518060400160405280600a81526020017f506f74656e7469616c3a00000000000000000000000000000000000000000000815250815250600d90600762000a9792919062000d3f565b5034801562000aa557600080fd5b506040518060400160405280600881526020017f5461726f744e46540000000000000000000000000000000000000000000000008152506040518060400160405280600581526020017f5441524f54000000000000000000000000000000000000000000000000000000815250816000908051906020019062000b2a92919062000c47565b50806001908051906020019062000b4392919062000c47565b50505062000b7560405180606001604052806022815260200162004ac56022913962000b7b60201b620010e31760201c565b62000f60565b62000c1b8160405160240162000b92919062000e74565b6040516020818303038152906040527f41304fac000000000000000000000000000000000000000000000000000000007bffffffffffffffffffffffffffffffffffffffffffffffffffffffff19166020820180517bffffffffffffffffffffffffffffffffffffffffffffffffffffffff838183161783525050505062000c1e60201b60201c565b50565b60008151905060006a636f6e736f6c652e6c6f679050602083016000808483855afa5050505050565b82805462000c559062000eea565b90600052602060002090601f01602090048101928262000c79576000855562000cc5565b82601f1062000c9457805160ff191683800117855562000cc5565b8280016001018555821562000cc5579182015b8281111562000cc457825182559160200191906001019062000ca7565b5b50905062000cd4919062000da6565b5090565b82805482825590600052602060002090810192821562000d2c579160200282015b8281111562000d2b57825182908051906020019062000d1a92919062000c47565b509160200191906001019062000cf9565b5b50905062000d3b919062000dc5565b5090565b82805482825590600052602060002090810192821562000d93579160200282015b8281111562000d9257825182908051906020019062000d8192919062000c47565b509160200191906001019062000d60565b5b50905062000da2919062000dc5565b5090565b5b8082111562000dc157600081600090555060010162000da7565b5090565b5b8082111562000de9576000818162000ddf919062000ded565b5060010162000dc6565b5090565b50805462000dfb9062000eea565b6000825580601f1062000e0f575062000e30565b601f01602090049060005260206000209081019062000e2f919062000da6565b5b50565b600062000e408262000e98565b62000e4c818562000ea3565b935062000e5e81856020860162000eb4565b62000e698162000f4f565b840191505092915050565b6000602082019050818103600083015262000e90818462000e33565b905092915050565b600081519050919050565b600082825260208201905092915050565b60005b8381101562000ed457808201518184015260208101905062000eb7565b8381111562000ee4576000848401525b50505050565b6000600282049050600182168062000f0357607f821691505b6020821081141562000f1a5762000f1962000f20565b5b50919050565b7f4e487b7100000000000000000000000000000000000000000000000000000000600052602260045260246000fd5b6000601f19601f8301169050919050565b613b558062000f706000396000f3fe608060405234801561001057600080fd5b50600436106101005760003560e01c80636352211e11610097578063b88d4fde11610066578063b88d4fde146102d1578063c87b56dd146102ed578063e985e9c51461031d578063f2a9a4fb1461034d57610100565b80636352211e1461023757806370a082311461026757806395d89b4114610297578063a22cb465146102b557610100565b806323b872dd116100d357806323b872dd1461019f57806342842e0e146101bb578063507ff426146101d75780635a8ba36e1461020757610100565b806301ffc9a71461010557806306fdde0314610135578063081812fc14610153578063095ea7b314610183575b600080fd5b61011f600480360381019061011a91906124e3565b610357565b60405161012c91906133ae565b60405180910390f35b61013d610439565b60405161014a91906133c9565b60405180910390f35b61016d60048036038101906101689190612535565b6104cb565b60405161017a919061331e565b60405180910390f35b61019d600480360381019061019891906124a7565b610550565b005b6101b960048036038101906101b491906123a1565b610668565b005b6101d560048036038101906101d091906123a1565b6106c8565b005b6101f160048036038101906101ec919061255e565b6106e8565b6040516101fe91906133c9565b60405180910390f35b610221600480360381019061021c9190612535565b6108f3565b60405161022e9190613649565b60405180910390f35b610251600480360381019061024c9190612535565b61094e565b60405161025e919061331e565b60405180910390f35b610281600480360381019061027c919061233c565b610a00565b60405161028e9190613649565b60405180910390f35b61029f610ab8565b6040516102ac91906133c9565b60405180910390f35b6102cf60048036038101906102ca919061246b565b610b4a565b005b6102eb60048036038101906102e691906123f0565b610b60565b005b61030760048036038101906103029190612535565b610bc2565b60405161031491906133c9565b60405180910390f35b61033760048036038101906103329190612365565b610d14565b60405161034491906133ae565b60405180910390f35b610355610da8565b005b60007f80ac58cd000000000000000000000000000000000000000000000000000000007bffffffffffffffffffffffffffffffffffffffffffffffffffffffff1916827bffffffffffffffffffffffffffffffffffffffffffffffffffffffff1916148061042257507f5b5e139f000000000000000000000000000000000000000000000000000000007bffffffffffffffffffffffffffffffffffffffffffffffffffffffff1916827bffffffffffffffffffffffffffffffffffffffffffffffffffffffff1916145b8061043257506104318261117c565b5b9050919050565b606060008054610448906138e8565b80601f0160208091040260200160405190810160405280929190818152602001828054610474906138e8565b80156104c15780601f10610496576101008083540402835291602001916104c1565b820191906000526020600020905b8154815290600101906020018083116104a457829003601f168201915b5050505050905090565b60006104d6826111e6565b610515576040517f08c379a000000000000000000000000000000000000000000000000000000000815260040161050c90613589565b60405180910390fd5b6004600083815260200190815260200160002060009054906101000a900473ffffffffffffffffffffffffffffffffffffffff169050919050565b600061055b8261094e565b90508073ffffffffffffffffffffffffffffffffffffffff168373ffffffffffffffffffffffffffffffffffffffff1614156105cc576040517f08c379a00000000000000000000000000000000000000000000000000000000081526004016105c3906135e9565b60405180910390fd5b8073ffffffffffffffffffffffffffffffffffffffff166105eb611252565b73ffffffffffffffffffffffffffffffffffffffff16148061061a575061061981610614611252565b610d14565b5b610659576040517f08c379a0000000000000000000000000000000000000000000000000000000008152600401610650906134c9565b60405180910390fd5b610663838361125a565b505050565b610679610673611252565b82611313565b6106b8576040517f08c379a00000000000000000000000000000000000000000000000000000000081526004016106af90613629565b60405180910390fd5b6106c38383836113f1565b505050565b6106e383838360405180602001604052806000815250610b60565b505050565b606060006107306106f88561164d565b6107018561164d565b61070a4261164d565b60405160200161071c939291906131ee565b6040516020818303038152906040526117fa565b9050600a80549050816107439190613963565b90506000600a8281548110610781577f4e487b7100000000000000000000000000000000000000000000000000000000600052603260045260246000fd5b906000526020600020018054610796906138e8565b80601f01602080910402602001604051908101604052809291908181526020018280546107c2906138e8565b801561080f5780601f106107e45761010080835404028352916020019161080f565b820191906000526020600020905b8154815290600101906020018083116107f257829003601f168201915b50505050509050600061085c6108248761164d565b61082d8761164d565b6108364261164d565b6040516020016108489392919061322a565b6040516020818303038152906040526117fa565b905060078161086b9190613963565b905060006005821161088c57604051806020016040528060008152506108c3565b6040518060400160405280600a81526020017f2c20496e766572746564000000000000000000000000000000000000000000008152505b905082816040516020016108d89291906130e0565b60405160208183030381529060405294505050505092915050565b6000806109306109028461164d565b61090b4261164d565b60405160200161091c9291906132ef565b6040516020818303038152906040526117fa565b9050600b80549050816109439190613963565b905080915050919050565b6000806002600084815260200190815260200160002060009054906101000a900473ffffffffffffffffffffffffffffffffffffffff169050600073ffffffffffffffffffffffffffffffffffffffff168173ffffffffffffffffffffffffffffffffffffffff1614156109f7576040517f08c379a00000000000000000000000000000000000000000000000000000000081526004016109ee90613509565b60405180910390fd5b80915050919050565b60008073ffffffffffffffffffffffffffffffffffffffff168273ffffffffffffffffffffffffffffffffffffffff161415610a71576040517f08c379a0000000000000000000000000000000000000000000000000000000008152600401610a68906134e9565b60405180910390fd5b600360008373ffffffffffffffffffffffffffffffffffffffff1673ffffffffffffffffffffffffffffffffffffffff168152602001908152602001600020549050919050565b606060018054610ac7906138e8565b80601f0160208091040260200160405190810160405280929190818152602001828054610af3906138e8565b8015610b405780601f10610b1557610100808354040283529160200191610b40565b820191906000526020600020905b815481529060010190602001808311610b2357829003601f168201915b5050505050905090565b610b5c610b55611252565b838361182d565b5050565b610b71610b6b611252565b83611313565b610bb0576040517f08c379a0000000000000000000000000000000000000000000000000000000008152600401610ba790613629565b60405180910390fd5b610bbc8484848461199a565b50505050565b6060610bcd826111e6565b610c0c576040517f08c379a0000000000000000000000000000000000000000000000000000000008152600401610c0390613569565b60405180910390fd5b6000600660008481526020019081526020016000208054610c2c906138e8565b80601f0160208091040260200160405190810160405280929190818152602001828054610c58906138e8565b8015610ca55780601f10610c7a57610100808354040283529160200191610ca5565b820191906000526020600020905b815481529060010190602001808311610c8857829003601f168201915b505050505090506000610cb66119f6565b9050600081511415610ccc578192505050610d0f565b600082511115610d01578082604051602001610ce99291906130e0565b60405160208183030381529060405292505050610d0f565b610d0a84611a0d565b925050505b919050565b6000600560008473ffffffffffffffffffffffffffffffffffffffff1673ffffffffffffffffffffffffffffffffffffffff16815260200190815260200160002060008373ffffffffffffffffffffffffffffffffffffffff1673ffffffffffffffffffffffffffffffffffffffff16815260200190815260200160002060009054906101000a900460ff16905092915050565b6000610db46007611ab4565b90506008548110610dfa576040517f08c379a0000000000000000000000000000000000000000000000000000000008152600401610df190613609565b60405180910390fd5b6000610e05826108f3565b90506000610e148360016106e8565b90506000610e238460026106e8565b90506000610e328560036106e8565b90506000600b8581548110610e70577f4e487b7100000000000000000000000000000000000000000000000000000000600052603260045260246000fd5b9060005260206000200184600c8781548110610eb5577f4e487b7100000000000000000000000000000000000000000000000000000000600052603260045260246000fd5b9060005260206000200185600d8981548110610efa577f4e487b7100000000000000000000000000000000000000000000000000000000600052603260045260246000fd5b9060005260206000200186604051602001610f1a96959493929190613133565b60405160208183030381529060405290506000600982604051602001610f41929190613104565b60405160208183030381529060405290506000610f5d8861164d565b604051602001610f6d9190613266565b60405160208183030381529060405290506000610fb282610f8d85611ac2565b604051602001610f9e929190613288565b604051602081830303815290604052611ac2565b9050600081604051602001610fc791906132cd565b60405160208183030381529060405290506110166040518060400160405280601581526020017f0a2d2d2d2d2d2d2d2d2d2d2d2d2d2d2d2d2d2d2d2d00000000000000000000008152506110e3565b61101f816110e3565b61105d6040518060400160405280601581526020017f2d2d2d2d2d2d2d2d2d2d2d2d2d2d2d2d2d2d2d2d0a00000000000000000000008152506110e3565b611067338b611c80565b6110718a82611c9e565b611094604051806060016040528060228152602001613afe602291398b33611d12565b61109e6007611db1565b7febb98688741ffa4c7589bf325de30cf7becb63de567842e1ccdb6cb949fdc82c338b6040516110cf929190613385565b60405180910390a150505050505050505050565b611179816040516024016110f791906133c9565b6040516020818303038152906040527f41304fac000000000000000000000000000000000000000000000000000000007bffffffffffffffffffffffffffffffffffffffffffffffffffffffff19166020820180517bffffffffffffffffffffffffffffffffffffffffffffffffffffffff8381831617835250505050611dc7565b50565b60007f01ffc9a7000000000000000000000000000000000000000000000000000000007bffffffffffffffffffffffffffffffffffffffffffffffffffffffff1916827bffffffffffffffffffffffffffffffffffffffffffffffffffffffff1916149050919050565b60008073ffffffffffffffffffffffffffffffffffffffff166002600084815260200190815260200160002060009054906101000a900473ffffffffffffffffffffffffffffffffffffffff1673ffffffffffffffffffffffffffffffffffffffff1614159050919050565b600033905090565b816004600083815260200190815260200160002060006101000a81548173ffffffffffffffffffffffffffffffffffffffff021916908373ffffffffffffffffffffffffffffffffffffffff160217905550808273ffffffffffffffffffffffffffffffffffffffff166112cd8361094e565b73ffffffffffffffffffffffffffffffffffffffff167f8c5be1e5ebec7d5bd14f71427d1e84f3dd0314c0f7b2291e5b200ac8c7c3b92560405160405180910390a45050565b600061131e826111e6565b61135d576040517f08c379a0000000000000000000000000000000000000000000000000000000008152600401611354906134a9565b60405180910390fd5b60006113688361094e565b90508073ffffffffffffffffffffffffffffffffffffffff168473ffffffffffffffffffffffffffffffffffffffff1614806113d757508373ffffffffffffffffffffffffffffffffffffffff166113bf846104cb565b73ffffffffffffffffffffffffffffffffffffffff16145b806113e857506113e78185610d14565b5b91505092915050565b8273ffffffffffffffffffffffffffffffffffffffff166114118261094e565b73ffffffffffffffffffffffffffffffffffffffff1614611467576040517f08c379a000000000000000000000000000000000000000000000000000000000815260040161145e906135a9565b60405180910390fd5b600073ffffffffffffffffffffffffffffffffffffffff168273ffffffffffffffffffffffffffffffffffffffff1614156114d7576040517f08c379a00000000000000000000000000000000000000000000000000000000081526004016114ce90613469565b60405180910390fd5b6114e2838383611df0565b6114ed60008261125a565b6001600360008573ffffffffffffffffffffffffffffffffffffffff1673ffffffffffffffffffffffffffffffffffffffff168152602001908152602001600020600082825461153d91906137fe565b925050819055506001600360008473ffffffffffffffffffffffffffffffffffffffff1673ffffffffffffffffffffffffffffffffffffffff1681526020019081526020016000206000828254611594919061371d565b92505081905550816002600083815260200190815260200160002060006101000a81548173ffffffffffffffffffffffffffffffffffffffff021916908373ffffffffffffffffffffffffffffffffffffffff160217905550808273ffffffffffffffffffffffffffffffffffffffff168473ffffffffffffffffffffffffffffffffffffffff167fddf252ad1be2c89b69c2b068fc378daa952ba7f163c4a11628f55a4df523b3ef60405160405180910390a4505050565b60606000821415611695576040518060400160405280600181526020017f300000000000000000000000000000000000000000000000000000000000000081525090506117f5565b600082905060005b600082146116c75780806116b09061391a565b915050600a826116c09190613773565b915061169d565b60008167ffffffffffffffff811115611709577f4e487b7100000000000000000000000000000000000000000000000000000000600052604160045260246000fd5b6040519080825280601f01601f19166020018201604052801561173b5781602001600182028036833780820191505090505b5090505b600085146117ee5760018261175491906137fe565b9150600a856117639190613963565b603061176f919061371d565b60f81b8183815181106117ab577f4e487b7100000000000000000000000000000000000000000000000000000000600052603260045260246000fd5b60200101907effffffffffffffffffffffffffffffffffffffffffffffffffffffffffffff1916908160001a905350600a856117e79190613773565b945061173f565b8093505050505b919050565b60008160405160200161180d91906130c9565b6040516020818303038152906040528051906020012060001c9050919050565b8173ffffffffffffffffffffffffffffffffffffffff168373ffffffffffffffffffffffffffffffffffffffff16141561189c576040517f08c379a000000000000000000000000000000000000000000000000000000000815260040161189390613489565b60405180910390fd5b80600560008573ffffffffffffffffffffffffffffffffffffffff1673ffffffffffffffffffffffffffffffffffffffff16815260200190815260200160002060008473ffffffffffffffffffffffffffffffffffffffff1673ffffffffffffffffffffffffffffffffffffffff16815260200190815260200160002060006101000a81548160ff0219169083151502179055508173ffffffffffffffffffffffffffffffffffffffff168373ffffffffffffffffffffffffffffffffffffffff167f17307eab39ab6107e8899845ad3d59bd9653f200f220920489ca2b5937696c318360405161198d91906133ae565b60405180910390a3505050565b6119a58484846113f1565b6119b184848484611df5565b6119f0576040517f08c379a00000000000000000000000000000000000000000000000000000000081526004016119e790613429565b60405180910390fd5b50505050565b606060405180602001604052806000815250905090565b6060611a18826111e6565b611a57576040517f08c379a0000000000000000000000000000000000000000000000000000000008152600401611a4e906135c9565b60405180910390fd5b6000611a616119f6565b90506000815111611a815760405180602001604052806000815250611aac565b80611a8b8461164d565b604051602001611a9c9291906130e0565b6040516020818303038152906040525b915050919050565b600081600001549050919050565b60606000825190506000811415611aeb5760405180602001604052806000815250915050611c7b565b60006003600283611afc919061371d565b611b069190613773565b6004611b1291906137a4565b90506000602082611b23919061371d565b67ffffffffffffffff811115611b62577f4e487b7100000000000000000000000000000000000000000000000000000000600052604160045260246000fd5b6040519080825280601f01601f191660200182016040528015611b945781602001600182028036833780820191505090505b5090506000604051806060016040528060408152602001613abe604091399050600181016020830160005b86811015611c385760038101905062ffffff818a015116603f8160121c168401518060081b905060ff603f83600c1c1686015116810190508060081b905060ff603f8360061c1686015116810190508060081b905060ff603f831686015116810190508060e01b90508084526004840193505050611bbf565b506003860660018114611c525760028114611c6257611c6d565b613d3d60f01b6002830352611c6d565b603d60f81b60018303525b508484525050819450505050505b919050565b611c9a828260405180602001604052806000815250611f8c565b5050565b611ca7826111e6565b611ce6576040517f08c379a0000000000000000000000000000000000000000000000000000000008152600401611cdd90613529565b60405180910390fd5b80600660008481526020019081526020016000209080519060200190611d0d9291906121c8565b505050565b611dac838383604051602401611d2a939291906133eb565b6040516020818303038152906040527fe3849f79000000000000000000000000000000000000000000000000000000007bffffffffffffffffffffffffffffffffffffffffffffffffffffffff19166020820180517bffffffffffffffffffffffffffffffffffffffffffffffffffffffff8381831617835250505050611dc7565b505050565b6001816000016000828254019250508190555050565b60008151905060006a636f6e736f6c652e6c6f679050602083016000808483855afa5050505050565b505050565b6000611e168473ffffffffffffffffffffffffffffffffffffffff16611fe7565b15611f7f578373ffffffffffffffffffffffffffffffffffffffff1663150b7a02611e3f611252565b8786866040518563ffffffff1660e01b8152600401611e619493929190613339565b602060405180830381600087803b158015611e7b57600080fd5b505af1925050508015611eac57506040513d601f19601f82011682018060405250810190611ea9919061250c565b60015b611f2f573d8060008114611edc576040519150601f19603f3d011682016040523d82523d6000602084013e611ee1565b606091505b50600081511415611f27576040517f08c379a0000000000000000000000000000000000000000000000000000000008152600401611f1e90613429565b60405180910390fd5b805181602001fd5b63150b7a0260e01b7bffffffffffffffffffffffffffffffffffffffffffffffffffffffff1916817bffffffffffffffffffffffffffffffffffffffffffffffffffffffff191614915050611f84565b600190505b949350505050565b611f968383611ffa565b611fa36000848484611df5565b611fe2576040517f08c379a0000000000000000000000000000000000000000000000000000000008152600401611fd990613429565b60405180910390fd5b505050565b600080823b905060008111915050919050565b600073ffffffffffffffffffffffffffffffffffffffff168273ffffffffffffffffffffffffffffffffffffffff16141561206a576040517f08c379a000000000000000000000000000000000000000000000000000000000815260040161206190613549565b60405180910390fd5b612073816111e6565b156120b3576040517f08c379a00000000000000000000000000000000000000000000000000000000081526004016120aa90613449565b60405180910390fd5b6120bf60008383611df0565b6001600360008473ffffffffffffffffffffffffffffffffffffffff1673ffffffffffffffffffffffffffffffffffffffff168152602001908152602001600020600082825461210f919061371d565b92505081905550816002600083815260200190815260200160002060006101000a81548173ffffffffffffffffffffffffffffffffffffffff021916908373ffffffffffffffffffffffffffffffffffffffff160217905550808273ffffffffffffffffffffffffffffffffffffffff16600073ffffffffffffffffffffffffffffffffffffffff167fddf252ad1be2c89b69c2b068fc378daa952ba7f163c4a11628f55a4df523b3ef60405160405180910390a45050565b8280546121d4906138e8565b90600052602060002090601f0160209004810192826121f6576000855561223d565b82601f1061220f57805160ff191683800117855561223d565b8280016001018555821561223d579182015b8281111561223c578251825591602001919060010190612221565b5b50905061224a919061224e565b5090565b5b8082111561226757600081600090555060010161224f565b5090565b600061227e61227984613695565b613664565b90508281526020810184848401111561229657600080fd5b6122a18482856138a6565b509392505050565b6000813590506122b881613a61565b92915050565b6000813590506122cd81613a78565b92915050565b6000813590506122e281613a8f565b92915050565b6000815190506122f781613a8f565b92915050565b600082601f83011261230e57600080fd5b813561231e84826020860161226b565b91505092915050565b60008135905061233681613aa6565b92915050565b60006020828403121561234e57600080fd5b600061235c848285016122a9565b91505092915050565b6000806040838503121561237857600080fd5b6000612386858286016122a9565b9250506020612397858286016122a9565b9150509250929050565b6000806000606084860312156123b657600080fd5b60006123c4868287016122a9565b93505060206123d5868287016122a9565b92505060406123e686828701612327565b9150509250925092565b6000806000806080858703121561240657600080fd5b6000612414878288016122a9565b9450506020612425878288016122a9565b935050604061243687828801612327565b925050606085013567ffffffffffffffff81111561245357600080fd5b61245f878288016122fd565b91505092959194509250565b6000806040838503121561247e57600080fd5b600061248c858286016122a9565b925050602061249d858286016122be565b9150509250929050565b600080604083850312156124ba57600080fd5b60006124c8858286016122a9565b92505060206124d985828601612327565b9150509250929050565b6000602082840312156124f557600080fd5b6000612503848285016122d3565b91505092915050565b60006020828403121561251e57600080fd5b600061252c848285016122e8565b91505092915050565b60006020828403121561254757600080fd5b600061255584828501612327565b91505092915050565b6000806040838503121561257157600080fd5b600061257f85828601612327565b925050602061259085828601612327565b9150509250929050565b6125a381613832565b82525050565b6125b281613844565b82525050565b60006125c3826136da565b6125cd81856136f0565b93506125dd8185602086016138b5565b6125e681613a50565b840191505092915050565b60006125fc826136e5565b6126068185613701565b93506126168185602086016138b5565b61261f81613a50565b840191505092915050565b6000612635826136e5565b61263f8185613712565b935061264f8185602086016138b5565b80840191505092915050565b60008154612668816138e8565b6126728186613712565b9450600182166000811461268d576001811461269e576126d1565b60ff198316865281860193506126d1565b6126a7856136c5565b60005b838110156126c9578154818901526001820191506020810190506126aa565b838801955050505b50505092915050565b60006126e7601883613712565b91507f3c747370616e20783d27313025272064793d2730656d273e00000000000000006000830152601882019050919050565b6000612727603283613701565b91507f4552433732313a207472616e7366657220746f206e6f6e20455243373231526560008301527f63656976657220696d706c656d656e74657200000000000000000000000000006020830152604082019050919050565b600061278d600683613712565b91507f415243414e4100000000000000000000000000000000000000000000000000006000830152600682019050919050565b60006127cd601c83613701565b91507f4552433732313a20746f6b656e20616c7265616479206d696e746564000000006000830152602082019050919050565b600061280d600883613712565b91507f3c2f747370616e3e0000000000000000000000000000000000000000000000006000830152600882019050919050565b600061284d602483613701565b91507f4552433732313a207472616e7366657220746f20746865207a65726f2061646460008301527f72657373000000000000000000000000000000000000000000000000000000006020830152604082019050919050565b60006128b3601983613701565b91507f4552433732313a20617070726f766520746f2063616c6c6572000000000000006000830152602082019050919050565b60006128f3602c83613701565b91507f4552433732313a206f70657261746f7220717565727920666f72206e6f6e657860008301527f697374656e7420746f6b656e00000000000000000000000000000000000000006020830152604082019050919050565b6000612959600d83613712565b91507f3c2f746578743e3c2f7376673e000000000000000000000000000000000000006000830152600d82019050919050565b6000612999600183613712565b91507f20000000000000000000000000000000000000000000000000000000000000006000830152600182019050919050565b60006129d9603883613701565b91507f4552433732313a20617070726f76652063616c6c6572206973206e6f74206f7760008301527f6e6572206e6f7220617070726f76656420666f7220616c6c00000000000000006020830152604082019050919050565b6000612a3f602a83613701565b91507f4552433732313a2062616c616e636520717565727920666f7220746865207a6560008301527f726f2061646472657373000000000000000000000000000000000000000000006020830152604082019050919050565b6000612aa5602983613701565b91507f4552433732313a206f776e657220717565727920666f72206e6f6e657869737460008301527f656e7420746f6b656e00000000000000000000000000000000000000000000006020830152604082019050919050565b6000612b0b602e83613701565b91507f45524337323155524953746f726167653a2055524920736574206f66206e6f6e60008301527f6578697374656e7420746f6b656e0000000000000000000000000000000000006020830152604082019050919050565b6000612b71600283613712565b91507f227d0000000000000000000000000000000000000000000000000000000000006000830152600282019050919050565b6000612bb1602083613701565b91507f4552433732313a206d696e7420746f20746865207a65726f20616464726573736000830152602082019050919050565b6000612bf1603183613701565b91507f45524337323155524953746f726167653a2055524920717565727920666f722060008301527f6e6f6e6578697374656e7420746f6b656e0000000000000000000000000000006020830152604082019050919050565b6000612c57602c83613701565b91507f4552433732313a20617070726f76656420717565727920666f72206e6f6e657860008301527f697374656e7420746f6b656e00000000000000000000000000000000000000006020830152604082019050919050565b6000612cbd600983613712565b91507f494e5645525445443f00000000000000000000000000000000000000000000006000830152600982019050919050565b6000612cfd600e83613712565b91507f5461726f742053707265616420230000000000000000000000000000000000006000830152600e82019050919050565b6000612d3d602983613701565b91507f4552433732313a207472616e73666572206f6620746f6b656e2074686174206960008301527f73206e6f74206f776e00000000000000000000000000000000000000000000006020830152604082019050919050565b6000612da3601a83613712565b91507f3c747370616e20783d27313025272064793d27312e36656d273e0000000000006000830152601a82019050919050565b6000612de3602f83613701565b91507f4552433732314d657461646174613a2055524920717565727920666f72206e6f60008301527f6e6578697374656e7420746f6b656e00000000000000000000000000000000006020830152604082019050919050565b6000612e49600a83613712565b91507f7b226e616d65223a2022000000000000000000000000000000000000000000006000830152600a82019050919050565b6000612e89602183613701565b91507f4552433732313a20617070726f76616c20746f2063757272656e74206f776e6560008301527f72000000000000000000000000000000000000000000000000000000000000006020830152604082019050919050565b6000612eef602583613701565b91507f546f6b656e206c696d69742068617320616c7265646179206265656e2072656160008301527f63686564210000000000000000000000000000000000000000000000000000006020830152604082019050919050565b6000612f55601d83613712565b91507f646174613a6170706c69636174696f6e2f6a736f6e3b6261736536342c0000006000830152601d82019050919050565b6000612f95603183613701565b91507f4552433732313a207472616e736665722063616c6c6572206973206e6f74206f60008301527f776e6572206e6f7220617070726f7665640000000000000000000000000000006020830152604082019050919050565b6000612ffb600683613712565b91507f53505245414400000000000000000000000000000000000000000000000000006000830152600682019050919050565b600061303b605a83613712565b91507f222c20226465736372697074696f6e223a20225461726f74207370726561647360008301527f206f6e2074686520626c6f636b636861696e2e222c2022696d616765223a202260208301527f646174613a696d6167652f7376672b786d6c3b6261736536342c0000000000006040830152605a82019050919050565b6130c38161389c565b82525050565b60006130d5828461262a565b915081905092915050565b60006130ec828561262a565b91506130f8828461262a565b91508190509392505050565b6000613110828561265b565b915061311c828461262a565b91506131278261294c565b91508190509392505050565b600061313e826126da565b915061314a828961265b565b91506131558261298c565b9150613161828861262a565b915061316c82612800565b915061317782612d96565b9150613183828761265b565b915061318e8261298c565b915061319a828661262a565b91506131a582612800565b91506131b082612d96565b91506131bc828561265b565b91506131c78261298c565b91506131d3828461262a565b91506131de82612800565b9150819050979650505050505050565b60006131f982612780565b9150613205828661262a565b9150613211828561262a565b915061321d828461262a565b9150819050949350505050565b600061323582612cb0565b9150613241828661262a565b915061324d828561262a565b9150613259828461262a565b9150819050949350505050565b600061327182612cf0565b915061327d828461262a565b915081905092915050565b600061329382612e3c565b915061329f828561262a565b91506132aa8261302e565b91506132b6828461262a565b91506132c182612b64565b91508190509392505050565b60006132d882612f48565b91506132e4828461262a565b915081905092915050565b60006132fa82612fee565b9150613306828561262a565b9150613312828461262a565b91508190509392505050565b6000602082019050613333600083018461259a565b92915050565b600060808201905061334e600083018761259a565b61335b602083018661259a565b61336860408301856130ba565b818103606083015261337a81846125b8565b905095945050505050565b600060408201905061339a600083018561259a565b6133a760208301846130ba565b9392505050565b60006020820190506133c360008301846125a9565b92915050565b600060208201905081810360008301526133e381846125f1565b905092915050565b6000606082019050818103600083015261340581866125f1565b905061341460208301856130ba565b613421604083018461259a565b949350505050565b600060208201905081810360008301526134428161271a565b9050919050565b60006020820190508181036000830152613462816127c0565b9050919050565b6000602082019050818103600083015261348281612840565b9050919050565b600060208201905081810360008301526134a2816128a6565b9050919050565b600060208201905081810360008301526134c2816128e6565b9050919050565b600060208201905081810360008301526134e2816129cc565b9050919050565b6000602082019050818103600083015261350281612a32565b9050919050565b6000602082019050818103600083015261352281612a98565b9050919050565b6000602082019050818103600083015261354281612afe565b9050919050565b6000602082019050818103600083015261356281612ba4565b9050919050565b6000602082019050818103600083015261358281612be4565b9050919050565b600060208201905081810360008301526135a281612c4a565b9050919050565b600060208201905081810360008301526135c281612d30565b9050919050565b600060208201905081810360008301526135e281612dd6565b9050919050565b6000602082019050818103600083015261360281612e7c565b9050919050565b6000602082019050818103600083015261362281612ee2565b9050919050565b6000602082019050818103600083015261364281612f88565b9050919050565b600060208201905061365e60008301846130ba565b92915050565b6000604051905081810181811067ffffffffffffffff8211171561368b5761368a613a21565b5b8060405250919050565b600067ffffffffffffffff8211156136b0576136af613a21565b5b601f19601f8301169050602081019050919050565b60008190508160005260206000209050919050565b600081519050919050565b600081519050919050565b600082825260208201905092915050565b600082825260208201905092915050565b600081905092915050565b60006137288261389c565b91506137338361389c565b9250827fffffffffffffffffffffffffffffffffffffffffffffffffffffffffffffffff0382111561376857613767613994565b5b828201905092915050565b600061377e8261389c565b91506137898361389c565b925082613799576137986139c3565b5b828204905092915050565b60006137af8261389c565b91506137ba8361389c565b9250817fffffffffffffffffffffffffffffffffffffffffffffffffffffffffffffffff04831182151516156137f3576137f2613994565b5b828202905092915050565b60006138098261389c565b91506138148361389c565b92508282101561382757613826613994565b5b828203905092915050565b600061383d8261387c565b9050919050565b60008115159050919050565b60007fffffffff0000000000000000000000000000000000000000000000000000000082169050919050565b600073ffffffffffffffffffffffffffffffffffffffff82169050919050565b6000819050919050565b82818337600083830152505050565b60005b838110156138d35780820151818401526020810190506138b8565b838111156138e2576000848401525b50505050565b6000600282049050600182168061390057607f821691505b60208210811415613914576139136139f2565b5b50919050565b60006139258261389c565b91507fffffffffffffffffffffffffffffffffffffffffffffffffffffffffffffffff82141561395857613957613994565b5b600182019050919050565b600061396e8261389c565b91506139798361389c565b925082613989576139886139c3565b5b828206905092915050565b7f4e487b7100000000000000000000000000000000000000000000000000000000600052601160045260246000fd5b7f4e487b7100000000000000000000000000000000000000000000000000000000600052601260045260246000fd5b7f4e487b7100000000000000000000000000000000000000000000000000000000600052602260045260246000fd5b7f4e487b7100000000000000000000000000000000000000000000000000000000600052604160045260246000fd5b6000601f19601f8301169050919050565b613a6a81613832565b8114613a7557600080fd5b50565b613a8181613844565b8114613a8c57600080fd5b50565b613a9881613850565b8114613aa357600080fd5b50565b613aaf8161389c565b8114613aba57600080fd5b5056fe4142434445464748494a4b4c4d4e4f505152535455565758595a6162636465666768696a6b6c6d6e6f707172737475767778797a303132333435363738392b2f4469642061207461726f742073707265616420772f20494420257320666f72202573a2646970667358221220a65ce44785271193afcfa387f379a4e8b42b25a3fb69692c9027da586ed7d5d164736f6c63430008000033486572652773206d79204a6162626572776f636b204e465420636f6e7472616374213c73766720786d6c6e733d27687474703a2f2f7777772e77332e6f72672f323030302f73766727207072657365727665417370656374526174696f3d27784d696e594d696e206d656574272076696577426f783d273020302033353020333530273e3c7374796c653e2e62617365207b2066696c6c3a2077686974653b20666f6e742d66616d696c793a2073657269663b20666f6e742d73697a653a20313870783b207d3c2f7374796c653e3c726563742077696474683d273130302527206865696768743d2731303025272066696c6c3d27626c61636b27202f3e3c7465787420783d273130252720793d273130252720636c6173733d27626173652720646f6d696e616e742d626173656c696e653d276d6964646c652720746578742d616e63686f723d276c656674273e",
  "linkReferences": {},
  "deployedLinkReferences": {}
}